:030000000200708B
:0C007000787FE4F6D8FD75810702008F50
:08008700B0383F3EF96E3FBEA8
:0B007C00EF1FAC0670011E4C70F62256
:10000300E4FDEDB40800504D900012F82828730267
:10001300002A02002E02003602003A0200420200C9
:100023004602004E020052D2B08002C2B0D2B1D218
:10003300B28022D2B08002C2B0C2B1D2B28016D294
:10004300B08002C2B0D2B1C2B2800AD2B08002C2C2
:10005300B0C2B1C2B2ED90008793F5A07F647E0079
:0C00630012007CE4F5A00DED640870961E
:01006F00226E
:05008F0012000380FBDC
:00000001FF
